{
  "contractName": "CryptoCardsFactory",
  "abi": [
    {
      "constant": true,
      "inputs": [],
      "name": "owner",
      "outputs": [
        {
          "name": "",
          "type": "address"
        }
      ],
      "payable": false,
      "stateMutability": "view",
      "type": "function"
    },
    {
      "constant": true,
      "inputs": [
        {
          "name": "",
          "type": "uint256"
        }
      ],
      "name": "cards",
      "outputs": [
        {
          "name": "identity",
          "type": "uint256"
        },
        {
          "name": "name",
          "type": "string"
        }
      ],
      "payable": false,
      "stateMutability": "view",
      "type": "function"
    },
    {
      "constant": false,
      "inputs": [
        {
          "name": "newOwner",
          "type": "address"
        }
      ],
      "name": "transferOwnership",
      "outputs": [],
      "payable": false,
      "stateMutability": "nonpayable",
      "type": "function"
    },
    {
      "anonymous": false,
      "inputs": [
        {
          "indexed": false,
          "name": "id",
          "type": "uint256"
        },
        {
          "indexed": false,
          "name": "_name",
          "type": "string"
        },
        {
          "indexed": false,
          "name": "_identity",
          "type": "uint256"
        }
      ],
      "name": "NewCard",
      "type": "event"
    },
    {
      "anonymous": false,
      "inputs": [
        {
          "indexed": true,
          "name": "previousOwner",
          "type": "address"
        },
        {
          "indexed": true,
          "name": "newOwner",
          "type": "address"
        }
      ],
      "name": "OwnershipTransferred",
      "type": "event"
    },
    {
      "constant": true,
      "inputs": [],
      "name": "getAllCards",
      "outputs": [
        {
          "name": "",
          "type": "uint256[]"
        }
      ],
      "payable": false,
      "stateMutability": "view",
      "type": "function"
    },
    {
      "constant": true,
      "inputs": [
        {
          "name": "id",
          "type": "uint256"
        }
      ],
      "name": "getCardById",
      "outputs": [
        {
          "name": "",
          "type": "string"
        },
        {
          "name": "",
          "type": "uint256"
        }
      ],
      "payable": false,
      "stateMutability": "view",
      "type": "function"
    },
    {
      "constant": false,
      "inputs": [
        {
          "name": "_name",
          "type": "string"
        },
        {
          "name": "_identity",
          "type": "uint256"
        }
      ],
      "name": "createCard",
      "outputs": [],
      "payable": false,
      "stateMutability": "nonpayable",
      "type": "function"
    }
  ],
  "bytecode": "0x6060604052336000806101000a81548173ffffffffffffffffffffffffffffffffffffffff021916908373ffffffffffffffffffffffffffffffffffffffff160217905550610ab8806100536000396000f300606060405260043610610078576000357c0100000000000000000000000000000000000000000000000000000000900463ffffffff1680636bdd44aa1461007d5780638da5cb5b146100b45780638dc10768146101095780639077fe52146101c9578063cea135161461026c578063f2fde38b146102d6575b600080fd5b341561008857600080fd5b6100b26004808035906020019082018035906020019190919290803590602001909190505061030f565b005b34156100bf57600080fd5b6100c761059e565b604051808273ffffffffffffffffffffffffffffffffffffffff1673ffffffffffffffffffffffffffffffffffffffff16815260200191505060405180910390f35b341561011457600080fd5b61012a60048080359060200190919050506105c3565b60405180838152602001806020018281038252838181546001816001161561010002031660029004815260200191508054600181600116156101000203166002900480156101b95780601f1061018e576101008083540402835291602001916101b9565b820191906000526020600020905b81548152906001019060200180831161019c57829003601f168201915b5050935050505060405180910390f35b34156101d457600080fd5b6101ea60048080359060200190919050506105f5565b6040518080602001838152602001828103825284818151815260200191508051906020019080838360005b83811015610230578082015181840152602081019050610215565b50505050905090810190601f16801561025d5780820380516001836020036101000a031916815260200191505b50935050505060405180910390f35b341561027757600080fd5b61027f6106e5565b6040518080602001828103825283818151815260200191508051906020019060200280838360005b838110156102c25780820151818401526020810190506102a7565b505050509050019250505060405180910390f35b34156102e157600080fd5b61030d600480803573ffffffffffffffffffffffffffffffffffffffff1690602001909190505061076f565b005b60008060009054906101000a900473ffffffffffffffffffffffffffffffffffffffff1673ffffffffffffffffffffffffffffffffffffffff163373ffffffffffffffffffffffffffffffffffffffff1614151561036c57600080fd5b600180805480600101828161038191906108e2565b91600052602060002090600202016000604080519081016040528087815260200189898080601f0160208091040260200160405190810160405280939291908181526020018383808284378201915050505050508152509091909150600082015181600001556020820151816001019080519060200190610403929190610914565b505050039050336002600083815260200190815260200160002060006101000a81548173ffffffffffffffffffffffffffffffffffffffff021916908373ffffffffffffffffffffffffffffffffffffffff160217905550600460003373ffffffffffffffffffffffffffffffffffffffff1673ffffffffffffffffffffffffffffffffffffffff16815260200190815260200160002080548060010182816104ac9190610994565b916000526020600020900160008390919091505550600460003373ffffffffffffffffffffffffffffffffffffffff1673ffffffffffffffffffffffffffffffffffffffff16815260200190815260200160002080549050600560008381526020019081526020016000208190555061053160016006546108c490919063ffffffff16565b6006819055507fc26d056b0cf208db2b1b44041aed71d24e75bd1b4ca5994bc6d06e9a72b6e580818585856040518085815260200180602001838152602001828103825285858281815260200192508082843782019150509550505050505060405180910390a150505050565b6000809054906101000a900473ffffffffffffffffffffffffffffffffffffffff1681565b6001818154811015156105d257fe5b906000526020600020906002020160009150905080600001549080600101905082565b6105fd6109c0565b600060018381548110151561060e57fe5b906000526020600020906002020160010160018481548110151561062e57fe5b906000526020600020906002020160000154818054600181600116156101000203166002900480601f0160208091040260200160405190810160405280929190818152602001828054600181600116156101000203166002900480156106d55780601f106106aa576101008083540402835291602001916106d5565b820191906000526020600020905b8154815290600101906020018083116106b857829003601f168201915b5050505050915091509150915091565b6106ed6109d4565b6106f56109d4565b60008060018054905060405180591061070b5750595b9080825280602002602001820160405250925060009150600090505b6001805490508110156107665780838381518110151561074357fe5b906020019060200201818152505081806001019250508080600101915050610727565b82935050505090565b6000809054906101000a900473ffffffffffffffffffffffffffffffffffffffff1673ffffffffffffffffffffffffffffffffffffffff163373ffffffffffffffffffffffffffffffffffffffff161415156107ca57600080fd5b600073ffffffffffffffffffffffffffffffffffffffff168173ffffffffffffffffffffffffffffffffffffffff161415151561080657600080fd5b8073ffffffffffffffffffffffffffffffffffffffff166000809054906101000a900473ffffffffffffffffffffffffffffffffffffffff1673ffffffffffffffffffffffffffffffffffffffff167f8be0079c531659141344cd1fd0a4f28419497f9722a3daafe3b4186f6b6457e060405160405180910390a3806000806101000a81548173ffffffffffffffffffffffffffffffffffffffff021916908373ffffffffffffffffffffffffffffffffffffffff16021790555050565b60008082840190508381101515156108d857fe5b8091505092915050565b81548183558181151161090f5760020281600202836000526020600020918201910161090e91906109e8565b5b505050565b828054600181600116156101000203166002900490600052602060002090601f016020900481019282601f1061095557805160ff1916838001178555610983565b82800160010185558215610983579182015b82811115610982578251825591602001919060010190610967565b5b5090506109909190610a1f565b5090565b8154818355818115116109bb578183600052602060002091820191016109ba9190610a1f565b5b505050565b602060405190810160405280600081525090565b602060405190810160405280600081525090565b610a1c91905b80821115610a1857600080820160009055600182016000610a0f9190610a44565b506002016109ee565b5090565b90565b610a4191905b80821115610a3d576000816000905550600101610a25565b5090565b90565b50805460018160011615610100020316600290046000825580601f10610a6a5750610a89565b601f016020900490600052602060002090810190610a889190610a1f565b5b505600a165627a7a72305820d9bed3a0b4dcad127a53f01a0eb0ddff13cb1b21d913ba5914392409671dce0d0029",
  "source": "pragma solidity ^0.4.4;\n\nimport \"./Ownable.sol\";\nimport \"../libraries/math/SafeMath.sol\";\ncontract CryptoCardsFactory is Ownable {\n  \n  using SafeMath for uint256;\n  event NewCard(uint id,string _name, uint _identity);\n  struct Card{\n  \tuint256 identity;\n  \tstring name;\n  }\t\n  Card[] public cards;\n\n  // Mapping from token ID to owner\n  mapping (uint256 => address) internal cardOwner;\n\n  // Mapping from token ID to approved address\n  mapping (uint256 => address) internal cardApprovals;\n\n  // Mapping from owner to list of owned token IDs\n  mapping (address => uint256[]) internal ownedCards;\n\n  // Mapping from token ID to index of the owner tokens list\n  mapping(uint256 => uint256) internal ownedCardsIndex;\n\n  // Total amount of tokens\n  uint256 internal totalTokens;\n\n  function getAllCards() external view returns(uint[]) {\n    uint[] memory ids = new uint[](cards.length);\n    uint counter = 0;\n    for(uint i = 0; i < cards.length; i++){\n      ids[counter] = i;\n      counter++;\n    }\n    return ids;\n  }\n  function getCardById(uint id) external view returns(string, uint256){\n     return (cards[id].name, cards[id].identity);\n  }\n\n  function createCard(string _name, uint256 _identity) external onlyOwner {\n\n\n  \tuint id = cards.push(Card(_identity, _name))- 1;\n\n    cardOwner[id] = msg.sender;\n    ownedCards[msg.sender].push(id); \n    ownedCardsIndex[id] = ownedCards[msg.sender].length;\n    totalTokens = totalTokens.add(1);\n\n    NewCard(id, _name, _identity);\n  }\n\n\n}\n",
  "sourcePath": "/home/lorenzo/CryptoCard/contracts/CryptoCardsFactory.sol",
  "compiler": {
    "name": "solc",
    "version": "0.4.19+commit.c4cbbb05.Emscripten.clang"
  },
  "schemaVersion": "1.0.1",
  "updatedAt": "2018-03-09T22:26:26.230Z"
}