{
  "contractName": "CryptoCardsFactory",
  "abi": [
    {
      "constant": true,
      "inputs": [],
      "name": "owner",
      "outputs": [
        {
          "name": "",
          "type": "address"
        }
      ],
      "payable": false,
      "stateMutability": "view",
      "type": "function"
    },
    {
      "constant": true,
      "inputs": [
        {
          "name": "",
          "type": "uint256"
        }
      ],
      "name": "cards",
      "outputs": [
        {
          "name": "price",
          "type": "uint256"
        },
        {
          "name": "identity",
          "type": "string"
        },
        {
          "name": "name",
          "type": "string"
        },
        {
          "name": "onSale",
          "type": "bool"
        }
      ],
      "payable": false,
      "stateMutability": "view",
      "type": "function"
    },
    {
      "constant": false,
      "inputs": [
        {
          "name": "newOwner",
          "type": "address"
        }
      ],
      "name": "transferOwnership",
      "outputs": [],
      "payable": false,
      "stateMutability": "nonpayable",
      "type": "function"
    },
    {
      "anonymous": false,
      "inputs": [
        {
          "indexed": true,
          "name": "previousOwner",
          "type": "address"
        },
        {
          "indexed": true,
          "name": "newOwner",
          "type": "address"
        }
      ],
      "name": "OwnershipTransferred",
      "type": "event"
    },
    {
      "constant": true,
      "inputs": [],
      "name": "getAllCards",
      "outputs": [
        {
          "name": "",
          "type": "uint256[]"
        }
      ],
      "payable": false,
      "stateMutability": "view",
      "type": "function"
    },
    {
      "constant": true,
      "inputs": [],
      "name": "getCardsOnSale",
      "outputs": [
        {
          "name": "",
          "type": "uint256[]"
        }
      ],
      "payable": false,
      "stateMutability": "view",
      "type": "function"
    },
    {
      "constant": true,
      "inputs": [
        {
          "name": "id",
          "type": "uint256"
        }
      ],
      "name": "getCardById",
      "outputs": [
        {
          "name": "",
          "type": "uint256"
        },
        {
          "name": "",
          "type": "string"
        },
        {
          "name": "",
          "type": "string"
        },
        {
          "name": "",
          "type": "bool"
        }
      ],
      "payable": false,
      "stateMutability": "view",
      "type": "function"
    },
    {
      "constant": false,
      "inputs": [
        {
          "name": "_price",
          "type": "uint256"
        },
        {
          "name": "_identity",
          "type": "string"
        },
        {
          "name": "_name",
          "type": "string"
        },
        {
          "name": "_onSale",
          "type": "bool"
        }
      ],
      "name": "createCard",
      "outputs": [],
      "payable": false,
      "stateMutability": "nonpayable",
      "type": "function"
    }
  ],
  "bytecode": "0x6060604052336000806101000a81548173ffffffffffffffffffffffffffffffffffffffff021916908373ffffffffffffffffffffffffffffffffffffffff160217905550610e6b806100536000396000f300606060405260043610610083576000357c0100000000000000000000000000000000000000000000000000000000900463ffffffff1680635e55b092146100885780636635e8aa146100f25780638da5cb5b146101485780638dc107681461019d5780639077fe52146102f1578063cea135161461040b578063f2fde38b14610475575b600080fd5b341561009357600080fd5b61009b6104ae565b6040518080602001828103825283818151815260200191508051906020019060200280838360005b838110156100de5780820151818401526020810190506100c3565b505050509050019250505060405180910390f35b34156100fd57600080fd5b610146600480803590602001909190803590602001908201803590602001919091929080359060200190820180359060200191909192908035151590602001909190505061056c565b005b341561015357600080fd5b61015b61081b565b604051808273ffffffffffffffffffffffffffffffffffffffff1673ffffffffffffffffffffffffffffffffffffffff16815260200191505060405180910390f35b34156101a857600080fd5b6101be6004808035906020019091905050610840565b6040518085815260200180602001806020018415151515815260200183810383528681815460018160011615610100020316600290048152602001915080546001816001161561010002031660029004801561025b5780601f106102305761010080835404028352916020019161025b565b820191906000526020600020905b81548152906001019060200180831161023e57829003601f168201915b50508381038252858181546001816001161561010002031660029004815260200191508054600181600116156101000203166002900480156102de5780601f106102b3576101008083540402835291602001916102de565b820191906000526020600020905b8154815290600101906020018083116102c157829003601f168201915b5050965050505050505060405180910390f35b34156102fc57600080fd5b610312600480803590602001909190505061088a565b60405180858152602001806020018060200184151515158152602001838103835286818151815260200191508051906020019080838360005b8381101561036657808201518184015260208101905061034b565b50505050905090810190601f1680156103935780820380516001836020036101000a031916815260200191505b50838103825285818151815260200191508051906020019080838360005b838110156103cc5780820151818401526020810190506103b1565b50505050905090810190601f1680156103f95780820380516001836020036101000a031916815260200191505b50965050505050505060405180910390f35b341561041657600080fd5b61041e610a74565b6040518080602001828103825283818151815260200191508051906020019060200280838360005b83811015610461578082015181840152602081019050610446565b505050509050019250505060405180910390f35b341561048057600080fd5b6104ac600480803573ffffffffffffffffffffffffffffffffffffffff16906020019091905050610afe565b005b6104b6610c71565b6104be610c71565b6000806001805490506040518059106104d45750595b9080825280602002602001820160405250925060009150600090505b6001805490508110156105635760018181548110151561050c57fe5b906000526020600020906004020160030160009054906101000a900460ff16156105565780838381518110151561053f57fe5b906020019060200201818152505081806001019250505b80806001019150506104f0565b82935050505090565b60008060009054906101000a900473ffffffffffffffffffffffffffffffffffffffff1673ffffffffffffffffffffffffffffffffffffffff163373ffffffffffffffffffffffffffffffffffffffff161415156105c957600080fd5b60018080548060010182816105de9190610c85565b916000526020600020906004020160006080604051908101604052808c81526020018b8b8080601f016020809104026020016040519081016040528093929190818152602001838380828437820191505050505050815260200189898080601f016020809104026020016040519081016040528093929190818152602001838380828437820191505050505050815260200187151581525090919091506000820151816000015560208201518160010190805190602001906106a1929190610cb7565b5060408201518160020190805190602001906106be929190610cb7565b5060608201518160030160006101000a81548160ff0219169083151502179055505050039050336002600083815260200190815260200160002060006101000a81548173ffffffffffffffffffffffffffffffffffffffff021916908373ffffffffffffffffffffffffffffffffffffffff160217905550600460003373ffffffffffffffffffffffffffffffffffffffff1673ffffffffffffffffffffffffffffffffffffffff16815260200190815260200160002080548060010182816107879190610d37565b916000526020600020900160008390919091505550600460003373ffffffffffffffffffffffffffffffffffffffff1673ffffffffffffffffffffffffffffffffffffffff16815260200190815260200160002080549050600560008381526020019081526020016000208190555061080c6001600654610c5390919063ffffffff16565b60068190555050505050505050565b6000809054906101000a900473ffffffffffffffffffffffffffffffffffffffff1681565b60018181548110151561084f57fe5b9060005260206000209060040201600091509050806000015490806001019080600201908060030160009054906101000a900460ff16905084565b6000610894610d63565b61089c610d63565b60006001858154811015156108ad57fe5b9060005260206000209060040201600001546001868154811015156108ce57fe5b90600052602060002090600402016001016001878154811015156108ee57fe5b906000526020600020906004020160020160018881548110151561090e57fe5b906000526020600020906004020160030160009054906101000a900460ff16828054600181600116156101000203166002900480601f0160208091040260200160405190810160405280929190818152602001828054600181600116156101000203166002900480156109c25780601f10610997576101008083540402835291602001916109c2565b820191906000526020600020905b8154815290600101906020018083116109a557829003601f168201915b50505050509250818054600181600116156101000203166002900480601f016020809104026020016040519081016040528092919081815260200182805460018160011615610100020316600290048015610a5e5780601f10610a3357610100808354040283529160200191610a5e565b820191906000526020600020905b815481529060010190602001808311610a4157829003601f168201915b5050505050915093509350935093509193509193565b610a7c610c71565b610a84610c71565b600080600180549050604051805910610a9a5750595b9080825280602002602001820160405250925060009150600090505b600180549050811015610af557808383815181101515610ad257fe5b906020019060200201818152505081806001019250508080600101915050610ab6565b82935050505090565b6000809054906101000a900473ffffffffffffffffffffffffffffffffffffffff1673ffffffffffffffffffffffffffffffffffffffff163373ffffffffffffffffffffffffffffffffffffffff16141515610b5957600080fd5b600073ffffffffffffffffffffffffffffffffffffffff168173ffffffffffffffffffffffffffffffffffffffff1614151515610b9557600080fd5b8073ffffffffffffffffffffffffffffffffffffffff166000809054906101000a900473ffffffffffffffffffffffffffffffffffffffff1673ffffffffffffffffffffffffffffffffffffffff167f8be0079c531659141344cd1fd0a4f28419497f9722a3daafe3b4186f6b6457e060405160405180910390a3806000806101000a81548173ffffffffffffffffffffffffffffffffffffffff021916908373ffffffffffffffffffffffffffffffffffffffff16021790555050565b6000808284019050838110151515610c6757fe5b8091505092915050565b602060405190810160405280600081525090565b815481835581811511610cb257600402816004028360005260206000209182019101610cb19190610d77565b5b505050565b828054600181600116156101000203166002900490600052602060002090601f016020900481019282601f10610cf857805160ff1916838001178555610d26565b82800160010185558215610d26579182015b82811115610d25578251825591602001919060010190610d0a565b5b509050610d339190610dd2565b5090565b815481835581811511610d5e57818360005260206000209182019101610d5d9190610dd2565b5b505050565b602060405190810160405280600081525090565b610dcf91905b80821115610dcb57600080820160009055600182016000610d9e9190610df7565b600282016000610dae9190610df7565b6003820160006101000a81549060ff021916905550600401610d7d565b5090565b90565b610df491905b80821115610df0576000816000905550600101610dd8565b5090565b90565b50805460018160011615610100020316600290046000825580601f10610e1d5750610e3c565b601f016020900490600052602060002090810190610e3b9190610dd2565b5b505600a165627a7a72305820344bd8ff9e78fbaeb88c28243b4bc5be5a5bb0db2d5fe9548e4d0c15a1eb2bc20029",
  "source": "pragma solidity ^0.4.4;\n\nimport \"./Ownable.sol\";\nimport \"../libraries/math/SafeMath.sol\";\ncontract CryptoCardsFactory is Ownable {\n  \n  using SafeMath for uint256;\n  //event NewCard(uint id,string _name, uint _identity);\n  struct Card{\n  \tuint256 price;\n    string identity;\n  \tstring name;\n    bool onSale;\n    \n\n  }\t\n  Card[] public cards;\n\n  // Mapping from token ID to owner\n  mapping (uint256 => address) internal cardOwner;\n\n  // Mapping from token ID to approved address\n  mapping (uint256 => address) internal cardApprovals;\n\n  // Mapping from owner to list of owned token IDs\n  mapping (address => uint256[]) internal ownedCards;\n\n  // Mapping from token ID to index of the owner tokens list\n  mapping(uint256 => uint256) internal ownedCardsIndex;\n\n  // Total amount of tokens\n  uint256 internal totalTokens;\n\n  function getAllCards() external view returns(uint[]) {\n    uint[] memory ids = new uint[](cards.length);\n    uint counter = 0;\n    for(uint i = 0; i < cards.length; i++){\n      ids[counter] = i;\n      counter++;\n    }\n    return ids;\n  }\n\n  function getCardsOnSale() external view returns(uint[]) {\n    uint[] memory ids = new uint[](cards.length);\n    uint counter = 0;\n    for(uint i = 0; i < cards.length; i++){\n      if(cards[i].onSale){\n        ids[counter] = i;\n        counter++;\n      }\n    }\n    return ids;\n  }\n\n  function getCardById(uint id) external view returns(uint256, string, string, bool){\n    return (cards[id].price, cards[id].identity, cards[id].name, cards[id].onSale);\n  }\n\n  function createCard(uint256 _price, string _identity, string _name,  bool _onSale) external onlyOwner {\n\n\n  \tuint id = cards.push(Card(_price,_identity, _name, _onSale))- 1;\n\n    cardOwner[id] = msg.sender;\n    ownedCards[msg.sender].push(id); \n    ownedCardsIndex[id] = ownedCards[msg.sender].length;\n    totalTokens = totalTokens.add(1);\n\n    //NewCard(id, _name, _identity);\n  }\n\n\n}\n",
  "sourcePath": "/home/lorenzo/CryptoCard/contracts/CryptoCardsFactory.sol",
  "compiler": {
    "name": "solc",
    "version": "0.4.19+commit.c4cbbb05.Emscripten.clang"
  },
  "schemaVersion": "1.0.1",
  "updatedAt": "2018-03-13T20:44:57.227Z"
}