{
  "contractName": "CryptoCardsFactory",
  "abi": [
    {
      "constant": true,
      "inputs": [],
      "name": "owner",
      "outputs": [
        {
          "name": "",
          "type": "address"
        }
      ],
      "payable": false,
      "stateMutability": "view",
      "type": "function"
    },
    {
      "constant": true,
      "inputs": [
        {
          "name": "",
          "type": "uint256"
        }
      ],
      "name": "cards",
      "outputs": [
        {
          "name": "identity",
          "type": "uint256"
        },
        {
          "name": "name",
          "type": "string"
        }
      ],
      "payable": false,
      "stateMutability": "view",
      "type": "function"
    },
    {
      "constant": false,
      "inputs": [
        {
          "name": "newOwner",
          "type": "address"
        }
      ],
      "name": "transferOwnership",
      "outputs": [],
      "payable": false,
      "stateMutability": "nonpayable",
      "type": "function"
    },
    {
      "anonymous": false,
      "inputs": [
        {
          "indexed": false,
          "name": "id",
          "type": "uint256"
        },
        {
          "indexed": false,
          "name": "_name",
          "type": "string"
        },
        {
          "indexed": false,
          "name": "_identity",
          "type": "uint256"
        }
      ],
      "name": "NewCard",
      "type": "event"
    },
    {
      "anonymous": false,
      "inputs": [
        {
          "indexed": true,
          "name": "previousOwner",
          "type": "address"
        },
        {
          "indexed": true,
          "name": "newOwner",
          "type": "address"
        }
      ],
      "name": "OwnershipTransferred",
      "type": "event"
    },
    {
      "constant": false,
      "inputs": [
        {
          "name": "_name",
          "type": "string"
        },
        {
          "name": "_identity",
          "type": "uint256"
        }
      ],
      "name": "createCard",
      "outputs": [],
      "payable": false,
      "stateMutability": "nonpayable",
      "type": "function"
    }
  ],
  "bytecode": "0x6060604052336000806101000a81548173ffffffffffffffffffffffffffffffffffffffff021916908373ffffffffffffffffffffffffffffffffffffffff1602179055506107f3806100536000396000f300606060405260043610610062576000357c0100000000000000000000000000000000000000000000000000000000900463ffffffff1680636bdd44aa146100675780638da5cb5b1461009e5780638dc10768146100f3578063f2fde38b146101b3575b600080fd5b341561007257600080fd5b61009c600480803590602001908201803590602001919091929080359060200190919050506101ec565b005b34156100a957600080fd5b6100b161047b565b604051808273ffffffffffffffffffffffffffffffffffffffff1673ffffffffffffffffffffffffffffffffffffffff16815260200191505060405180910390f35b34156100fe57600080fd5b61011460048080359060200190919050506104a0565b60405180838152602001806020018281038252838181546001816001161561010002031660029004815260200191508054600181600116156101000203166002900480156101a35780601f10610178576101008083540402835291602001916101a3565b820191906000526020600020905b81548152906001019060200180831161018657829003601f168201915b5050935050505060405180910390f35b34156101be57600080fd5b6101ea600480803573ffffffffffffffffffffffffffffffffffffffff169060200190919050506104d2565b005b60008060009054906101000a900473ffffffffffffffffffffffffffffffffffffffff1673ffffffffffffffffffffffffffffffffffffffff163373ffffffffffffffffffffffffffffffffffffffff1614151561024957600080fd5b600180805480600101828161025e9190610645565b91600052602060002090600202016000604080519081016040528087815260200189898080601f01602080910402602001604051908101604052809392919081815260200183838082843782019150505050505081525090919091506000820151816000015560208201518160010190805190602001906102e0929190610677565b505050039050336002600083815260200190815260200160002060006101000a81548173ffffffffffffffffffffffffffffffffffffffff021916908373ffffffffffffffffffffffffffffffffffffffff160217905550600460003373ffffffffffffffffffffffffffffffffffffffff1673ffffffffffffffffffffffffffffffffffffffff168152602001908152602001600020805480600101828161038991906106f7565b916000526020600020900160008390919091505550600460003373ffffffffffffffffffffffffffffffffffffffff1673ffffffffffffffffffffffffffffffffffffffff16815260200190815260200160002080549050600560008381526020019081526020016000208190555061040e600160065461062790919063ffffffff16565b6006819055507fc26d056b0cf208db2b1b44041aed71d24e75bd1b4ca5994bc6d06e9a72b6e580818585856040518085815260200180602001838152602001828103825285858281815260200192508082843782019150509550505050505060405180910390a150505050565b6000809054906101000a900473ffffffffffffffffffffffffffffffffffffffff1681565b6001818154811015156104af57fe5b906000526020600020906002020160009150905080600001549080600101905082565b6000809054906101000a900473ffffffffffffffffffffffffffffffffffffffff1673ffffffffffffffffffffffffffffffffffffffff163373ffffffffffffffffffffffffffffffffffffffff1614151561052d57600080fd5b600073ffffffffffffffffffffffffffffffffffffffff168173ffffffffffffffffffffffffffffffffffffffff161415151561056957600080fd5b8073ffffffffffffffffffffffffffffffffffffffff166000809054906101000a900473ffffffffffffffffffffffffffffffffffffffff1673ffffffffffffffffffffffffffffffffffffffff167f8be0079c531659141344cd1fd0a4f28419497f9722a3daafe3b4186f6b6457e060405160405180910390a3806000806101000a81548173ffffffffffffffffffffffffffffffffffffffff021916908373ffffffffffffffffffffffffffffffffffffffff16021790555050565b600080828401905083811015151561063b57fe5b8091505092915050565b815481835581811511610672576002028160020283600052602060002091820191016106719190610723565b5b505050565b828054600181600116156101000203166002900490600052602060002090601f016020900481019282601f106106b857805160ff19168380011785556106e6565b828001600101855582156106e6579182015b828111156106e55782518255916020019190600101906106ca565b5b5090506106f3919061075a565b5090565b81548183558181151161071e5781836000526020600020918201910161071d919061075a565b5b505050565b61075791905b808211156107535760008082016000905560018201600061074a919061077f565b50600201610729565b5090565b90565b61077c91905b80821115610778576000816000905550600101610760565b5090565b90565b50805460018160011615610100020316600290046000825580601f106107a557506107c4565b601f0160209004906000526020600020908101906107c3919061075a565b5b505600a165627a7a7230582029f1fd91b8b0ff591dd0a59ba4cc0dfebcc140c1bf5448c1895c4aac0789c2100029",
  "source": "pragma solidity ^0.4.4;\n\nimport \"./Ownable.sol\";\nimport \"../libraries/math/SafeMath.sol\";\ncontract CryptoCardsFactory is Ownable {\n  \n  using SafeMath for uint256;\n  event NewCard(uint id,string _name, uint _identity);\n  struct Card{\n  \tuint256 identity;\n  \tstring name;\n  }\t\n  Card[] public cards;\n\n  // Mapping from token ID to owner\n  mapping (uint256 => address) internal cardOwner;\n\n  // Mapping from token ID to approved address\n  mapping (uint256 => address) internal cardApprovals;\n\n  // Mapping from owner to list of owned token IDs\n  mapping (address => uint256[]) internal ownedCards;\n\n  // Mapping from token ID to index of the owner tokens list\n  mapping(uint256 => uint256) internal ownedCardsIndex;\n\n  // Total amount of tokens\n  uint256 internal totalTokens;\n\n  function createCard(string _name, uint256 _identity) external onlyOwner {\n\n\n  \tuint id = cards.push(Card(_identity, _name))- 1;\n\n    cardOwner[id] = msg.sender;\n    ownedCards[msg.sender].push(id); \n    ownedCardsIndex[id] = ownedCards[msg.sender].length;\n    totalTokens = totalTokens.add(1);\n\n    NewCard(id, _name, _identity);\n  }\n\n\n}\n",
  "sourcePath": "/home/lorenzo/CryptoCard/contracts/CryptoCardsFactory.sol",
  "compiler": {
    "name": "solc",
    "version": "0.4.19+commit.c4cbbb05.Emscripten.clang"
  },
  "schemaVersion": "1.0.1",
  "updatedAt": "2018-03-05T20:13:12.418Z"
}