{
  "contractName": "CryptoCardsFactory",
  "abi": [
    {
      "constant": true,
      "inputs": [],
      "name": "owner",
      "outputs": [
        {
          "name": "",
          "type": "address"
        }
      ],
      "payable": false,
      "stateMutability": "view",
      "type": "function"
    },
    {
      "constant": true,
      "inputs": [
        {
          "name": "",
          "type": "uint256"
        }
      ],
      "name": "cards",
      "outputs": [
        {
          "name": "identity",
          "type": "uint256"
        },
        {
          "name": "price",
          "type": "uint256"
        },
        {
          "name": "name",
          "type": "string"
        },
        {
          "name": "onSale",
          "type": "bool"
        }
      ],
      "payable": false,
      "stateMutability": "view",
      "type": "function"
    },
    {
      "constant": false,
      "inputs": [
        {
          "name": "newOwner",
          "type": "address"
        }
      ],
      "name": "transferOwnership",
      "outputs": [],
      "payable": false,
      "stateMutability": "nonpayable",
      "type": "function"
    },
    {
      "anonymous": false,
      "inputs": [
        {
          "indexed": true,
          "name": "previousOwner",
          "type": "address"
        },
        {
          "indexed": true,
          "name": "newOwner",
          "type": "address"
        }
      ],
      "name": "OwnershipTransferred",
      "type": "event"
    },
    {
      "constant": true,
      "inputs": [],
      "name": "getAllCards",
      "outputs": [
        {
          "name": "",
          "type": "uint256[]"
        }
      ],
      "payable": false,
      "stateMutability": "view",
      "type": "function"
    },
    {
      "constant": true,
      "inputs": [],
      "name": "getCardsOnSale",
      "outputs": [
        {
          "name": "",
          "type": "uint256[]"
        }
      ],
      "payable": false,
      "stateMutability": "view",
      "type": "function"
    },
    {
      "constant": true,
      "inputs": [
        {
          "name": "id",
          "type": "uint256"
        }
      ],
      "name": "getCardById",
      "outputs": [
        {
          "name": "",
          "type": "uint256"
        },
        {
          "name": "",
          "type": "uint256"
        },
        {
          "name": "",
          "type": "string"
        },
        {
          "name": "",
          "type": "bool"
        }
      ],
      "payable": false,
      "stateMutability": "view",
      "type": "function"
    },
    {
      "constant": false,
      "inputs": [
        {
          "name": "_identity",
          "type": "uint256"
        },
        {
          "name": "_price",
          "type": "uint256"
        },
        {
          "name": "_name",
          "type": "string"
        },
        {
          "name": "_onSale",
          "type": "bool"
        }
      ],
      "name": "createCard",
      "outputs": [],
      "payable": false,
      "stateMutability": "nonpayable",
      "type": "function"
    }
  ],
  "bytecode": "0x6060604052336000806101000a81548173ffffffffffffffffffffffffffffffffffffffff021916908373ffffffffffffffffffffffffffffffffffffffff160217905550610c8a806100536000396000f300606060405260043610610083576000357c0100000000000000000000000000000000000000000000000000000000900463ffffffff168063420a3f57146100885780635e55b092146100d35780638da5cb5b1461013d5780638dc10768146101925780639077fe5214610264578063cea1351614610319578063f2fde38b14610383575b600080fd5b341561009357600080fd5b6100d16004808035906020019091908035906020019091908035906020019082018035906020019190919290803515159060200190919050506103bc565b005b34156100de57600080fd5b6100e6610625565b6040518080602001828103825283818151815260200191508051906020019060200280838360005b8381101561012957808201518184015260208101905061010e565b505050509050019250505060405180910390f35b341561014857600080fd5b6101506106e3565b604051808273ffffffffffffffffffffffffffffffffffffffff1673ffffffffffffffffffffffffffffffffffffffff16815260200191505060405180910390f35b341561019d57600080fd5b6101b36004808035906020019091905050610708565b6040518085815260200184815260200180602001831515151581526020018281038252848181546001816001161561010002031660029004815260200191508054600181600116156101000203166002900480156102525780601f1061022757610100808354040283529160200191610252565b820191906000526020600020905b81548152906001019060200180831161023557829003601f168201915b50509550505050505060405180910390f35b341561026f57600080fd5b6102856004808035906020019091905050610753565b604051808581526020018481526020018060200183151515158152602001828103825284818151815260200191508051906020019080838360005b838110156102db5780820151818401526020810190506102c0565b50505050905090810190601f1680156103085780820380516001836020036101000a031916815260200191505b509550505050505060405180910390f35b341561032457600080fd5b61032c61089b565b6040518080602001828103825283818151815260200191508051906020019060200280838360005b8381101561036f578082015181840152602081019050610354565b505050509050019250505060405180910390f35b341561038e57600080fd5b6103ba600480803573ffffffffffffffffffffffffffffffffffffffff16906020019091905050610925565b005b60008060009054906101000a900473ffffffffffffffffffffffffffffffffffffffff1673ffffffffffffffffffffffffffffffffffffffff163373ffffffffffffffffffffffffffffffffffffffff1614151561041957600080fd5b600180805480600101828161042e9190610a98565b916000526020600020906004020160006080604051908101604052808b81526020018a815260200189898080601f01602080910402602001604051908101604052809392919081815260200183838082843782019150505050505081526020018715158152509091909150600082015181600001556020820151816001015560408201518160020190805190602001906104c9929190610aca565b5060608201518160030160006101000a81548160ff0219169083151502179055505050039050336002600083815260200190815260200160002060006101000a81548173ffffffffffffffffffffffffffffffffffffffff021916908373ffffffffffffffffffffffffffffffffffffffff160217905550600460003373ffffffffffffffffffffffffffffffffffffffff1673ffffffffffffffffffffffffffffffffffffffff16815260200190815260200160002080548060010182816105929190610b4a565b916000526020600020900160008390919091505550600460003373ffffffffffffffffffffffffffffffffffffffff1673ffffffffffffffffffffffffffffffffffffffff1681526020019081526020016000208054905060056000838152602001908152602001600020819055506106176001600654610a7a90919063ffffffff16565b600681905550505050505050565b61062d610b76565b610635610b76565b60008060018054905060405180591061064b5750595b9080825280602002602001820160405250925060009150600090505b6001805490508110156106da5760018181548110151561068357fe5b906000526020600020906004020160030160009054906101000a900460ff16156106cd578083838151811015156106b657fe5b906020019060200201818152505081806001019250505b8080600101915050610667565b82935050505090565b6000809054906101000a900473ffffffffffffffffffffffffffffffffffffffff1681565b60018181548110151561071757fe5b906000526020600020906004020160009150905080600001549080600101549080600201908060030160009054906101000a900460ff16905084565b60008061075e610b8a565b600060018581548110151561076f57fe5b90600052602060002090600402016000015460018681548110151561079057fe5b9060005260206000209060040201600101546001878154811015156107b157fe5b90600052602060002090600402016002016001888154811015156107d157fe5b906000526020600020906004020160030160009054906101000a900460ff16818054600181600116156101000203166002900480601f0160208091040260200160405190810160405280929190818152602001828054600181600116156101000203166002900480156108855780601f1061085a57610100808354040283529160200191610885565b820191906000526020600020905b81548152906001019060200180831161086857829003601f168201915b5050505050915093509350935093509193509193565b6108a3610b76565b6108ab610b76565b6000806001805490506040518059106108c15750595b9080825280602002602001820160405250925060009150600090505b60018054905081101561091c578083838151811015156108f957fe5b9060200190602002018181525050818060010192505080806001019150506108dd565b82935050505090565b6000809054906101000a900473ffffffffffffffffffffffffffffffffffffffff1673ffffffffffffffffffffffffffffffffffffffff163373ffffffffffffffffffffffffffffffffffffffff1614151561098057600080fd5b600073ffffffffffffffffffffffffffffffffffffffff168173ffffffffffffffffffffffffffffffffffffffff16141515156109bc57600080fd5b8073ffffffffffffffffffffffffffffffffffffffff166000809054906101000a900473ffffffffffffffffffffffffffffffffffffffff1673ffffffffffffffffffffffffffffffffffffffff167f8be0079c531659141344cd1fd0a4f28419497f9722a3daafe3b4186f6b6457e060405160405180910390a3806000806101000a81548173ffffffffffffffffffffffffffffffffffffffff021916908373ffffffffffffffffffffffffffffffffffffffff16021790555050565b6000808284019050838110151515610a8e57fe5b8091505092915050565b815481835581811511610ac557600402816004028360005260206000209182019101610ac49190610b9e565b5b505050565b828054600181600116156101000203166002900490600052602060002090601f016020900481019282601f10610b0b57805160ff1916838001178555610b39565b82800160010185558215610b39579182015b82811115610b38578251825591602001919060010190610b1d565b5b509050610b469190610bf1565b5090565b815481835581811511610b7157818360005260206000209182019101610b709190610bf1565b5b505050565b602060405190810160405280600081525090565b602060405190810160405280600081525090565b610bee91905b80821115610bea576000808201600090556001820160009055600282016000610bcd9190610c16565b6003820160006101000a81549060ff021916905550600401610ba4565b5090565b90565b610c1391905b80821115610c0f576000816000905550600101610bf7565b5090565b90565b50805460018160011615610100020316600290046000825580601f10610c3c5750610c5b565b601f016020900490600052602060002090810190610c5a9190610bf1565b5b505600a165627a7a7230582026cfef8cddea6cda6b92d68cf94d8a62e81946c82f7591ab6dcd218a309ce4f00029",
  "source": "pragma solidity ^0.4.4;\n\nimport \"./Ownable.sol\";\nimport \"../libraries/math/SafeMath.sol\";\ncontract CryptoCardsFactory is Ownable {\n  \n  using SafeMath for uint256;\n  //event NewCard(uint id,string _name, uint _identity);\n  struct Card{\n  \tuint256 identity;\n    uint256 price;\n  \tstring name;\n    bool onSale;\n    \n\n  }\t\n  Card[] public cards;\n\n  // Mapping from token ID to owner\n  mapping (uint256 => address) internal cardOwner;\n\n  // Mapping from token ID to approved address\n  mapping (uint256 => address) internal cardApprovals;\n\n  // Mapping from owner to list of owned token IDs\n  mapping (address => uint256[]) internal ownedCards;\n\n  // Mapping from token ID to index of the owner tokens list\n  mapping(uint256 => uint256) internal ownedCardsIndex;\n\n  // Total amount of tokens\n  uint256 internal totalTokens;\n\n  function getAllCards() external view returns(uint[]) {\n    uint[] memory ids = new uint[](cards.length);\n    uint counter = 0;\n    for(uint i = 0; i < cards.length; i++){\n      ids[counter] = i;\n      counter++;\n    }\n    return ids;\n  }\n\n  function getCardsOnSale() external view returns(uint[]) {\n    uint[] memory ids = new uint[](cards.length);\n    uint counter = 0;\n    for(uint i = 0; i < cards.length; i++){\n      if(cards[i].onSale){\n        ids[counter] = i;\n        counter++;\n      }\n    }\n    return ids;\n  }\n\n  function getCardById(uint id) external view returns(uint256,uint256, string, bool){\n    return (cards[id].identity, cards[id].price, cards[id].name, cards[id].onSale);\n  }\n\n  function createCard(uint256 _identity, uint256 _price, string _name,  bool _onSale) external onlyOwner {\n\n\n  \tuint id = cards.push(Card(_identity, _price, _name, _onSale))- 1;\n\n    cardOwner[id] = msg.sender;\n    ownedCards[msg.sender].push(id); \n    ownedCardsIndex[id] = ownedCards[msg.sender].length;\n    totalTokens = totalTokens.add(1);\n\n    //NewCard(id, _name, _identity);\n  }\n\n\n}\n",
  "sourcePath": "/home/lorenzo/CryptoCard/contracts/CryptoCardsFactory.sol",
  "compiler": {
    "name": "solc",
    "version": "0.4.19+commit.c4cbbb05.Emscripten.clang"
  },
  "schemaVersion": "1.0.1",
  "updatedAt": "2018-03-10T22:59:42.851Z"
}